:020000040800F2
:10000000780600208901000891010008930100088A
:100010009501000897010008990100080000000000
:100020000000000000000000000000009B0100082C
:100030009D010008000000009F010008A1010008C8
:10004000A3010008A3010008A3010008A301000800
:10005000A3010008A3010008A3010008A3010008F0
:10006000A3010008A3010008A3010008A3010008E0
:10007000A3010008A3010008A3010008A3010008D0
:10008000A3010008A3010008A3010008A3010008C0
:10009000A3010008A3010008A3010008A3010008B0
:1000A000A3010008A3010008A3010008A3010008A0
:1000B000A3010008A3010008A3010008A301000890
:1000C000A3010008A3010008A3010008A301000880
:1000D000A30100084D090008A3010008A3010008BE
:1000E000A3010008A3010008A301000800F002F822
:1000F00000F03AF80AA090E8000C82448344AAF188
:100100000107DA4501D100F02FF8AFF2090EBAE885
:100110000F0013F0010F18BFFB1A43F0010318473B
:1001200084130000A4130000103A24BF78C878C1DB
:10013000FAD8520724BF30C830C144BF04680C60ED
:10014000704700000023002400250026103A28BF35
:1001500078C1FBD8520728BF30C148BF0B60704739
:100160001FB51FBD10B510BD00F031F81146FFF7E7
:10017000F7FF00F029FF00F04FF803B4FFF7F2FF9C
:1001800003BC00F057F800000948804709480047C1
:10019000FEE7FEE7FEE7FEE7FEE7FEE7FEE7FEE737
:1001A000FEE7FEE704480549054A064B7047000094
:1001B000D9050008ED00000878000020780600202E
:1001C000780200207802002070477047704775461B
:1001D00000F02CF8AE4605006946534620F00700B3
:1001E000854618B020B5FFF7DDFFBDE820404FF091
:1001F00000064FF000074FF000084FF0000B21F011
:100200000701AC46ACE8C009ACE8C009ACE8C009DD
:10021000ACE8C0098D46704710B50446AFF30080C6
:100220002046BDE81040FFF7A8BF00000048704717
:100230001800002001491820ABBEFEE7260002008E
:1002400070472DE9F04102460025002600200023DA
:100250000024002791F803C00CF00F0591F803C0AB
:100260000CF0100CBCF1000F03D091F802C04CEA66
:10027000050591F800C0BCF1000F31D014680020D2
:100280002BE04FF0010C0CFA00F3B1F800C00CEABF
:1002900003069E4220D183004FF00F0C0CFA03F7A7
:1002A000BC4305FA03FC4CEA040491F803C0BCF11A
:1002B000280F06D14FF0010C0CFA00FCC2F814C054
:1002C0000AE091F803C0BCF1480F05D14FF0010CD2
:1002D0000CFA00FCC2F810C0401C0828D1D31460EE
:1002E000B1F800C0BCF1FF0F34DD546800202EE0EF
:1002F00000F1080C4FF0010808FA0CF3B1F800C047
:100300000CEA03069E4221D183004FF00F0C0CFA39
:1003100003F7BC4305FA03FC4CEA040491F803C05C
:10032000BCF1280F05D100F1080C08FA0CF8C2F84E
:10033000148091F803C0BCF1480F07D100F1080CFC
:100340004FF0010808FA0CF8C2F81080401C082889
:10035000CED35460BDE8F08170B5002100230F2298
:10036000C47804B3154C246804F4E064C4F5E06474
:10037000210AC1F10403CA40447804FA03F18478E5
:100380001440214309010E4C0678A155047804F06D
:100390001F050124AC4005786D11AD0005F1E02585
:1003A000C5F8004109E0047804F01F050124AC40C1
:1003B000044D0678761145F8264070BD0CED00E03E
:1003C00000E400E080E100E002490143024A1160DC
:1003D000704700000000FA050CED00E029B1064A64
:1003E000D2690243044BDA6104E0034AD2698243D2
:1003F000014BDA61704700000010024029B1064A43
:1004000092690243044B9A6104E0034A9269824371
:10041000014B9A61704700000010024030B5002186
:100420000022002400232D4D6D6805F00C0121B140
:10043000042905D0082923D105E0294D056022E0D3
:10044000274D05601FE0254D6D6805F47012234DA2
:100450006D6805F48034022505EB92421CB9214DEC
:10046000554305600BE01D4D6D6805F400351DB169
:100470001C4D5543056002E0194D5543056002E0EF
:10048000174D056000BF00BF144D6D6805F0F00109
:100490000909154D6B5C0568DD4045600F4D6D68C1
:1004A00005F4E061090A104D6B5C4568DD4085602C
:1004B0000A4D6D6805F46051C90A0B4D6B5C4568C7
:1004C000DD40C560054D6D6805F44041890B074D61
:1004D0006B5CC568B5FBF3F5056130BD00100240EB
:1004E00000127A0000093D000400002014000020E2
:1004F00010B500F001F810BD0CB50020019000907F
:100500003348006840F480303149086000BF30480B
:10051000006800F4003000900198401C01900098A1
:1005200018B90198B0F5A06FF1D12948006800F41E
:10053000003010B10120009001E0002000900098F0
:10054000012843D12348006840F010002149086089
:100550000846006820F0030008600846006840F084
:10056000020008601A484068194948600846406817
:1005700048600846406840F480604860084640682B
:1005800020F47C1048600846406840F4E810486059
:100590000846006840F08070086000BF0C480068A2
:1005A00000F000700028F9D00948406820F00300EE
:1005B000074948600846406840F00200486000BFB4
:1005C0000348406800F00C000828F9D10CBD000079
:1005D000001002400020024010B51348006840F0AF
:1005E00001001149086008464068104908400E495A
:1005F0004860084600680E4908400B4908600846F4
:10060000006820F4802008600846406820F4FE005E
:1006100048604FF41F008860FFF76AFF4FF00060EA
:100620000449086010BD0000001002400000FFF8FF
:10063000FFFFF6FE08ED00E021B1028842F0010262
:10064000028004E002884FF6FE731A400280704771
:1006500070B5002400220023058C4FF6FE7635404D
:100660000584028C8388048B4FF68F752C40B51E51
:100670002C400D882C43751E2A400D892A434D8835
:100680002A43144DA8420BD0134DA84208D0134D55
:10069000A84205D0124DA84202D0124DA84213D153
:1006A0004FF6F7752A404D892A434FF6FB752A40CD
:1006B0008D882A434FF6FF652B404FF6FF552B40A0
:1006C0008D892B43CD892B4383800483CD888586F8
:1006D000028470BD002C0140003401400040014004
:1006E000004401400048014070B50024002200236E
:1006F000058C4FF6EF7635400584028C8388048B99
:1007000048F6FF752C404FF6FF452C400D884FF6FC
:10071000FF7606EA05252C434FF6DF752A400D8942
:1007200006EA05152A434D8806EA05152A43154DA4
:10073000A84202D0144DA8421DD14FF67F752A4021
:100740004D894FF6FF7606EA05152A434FF6BF7529
:100750002A408D8806EA05152A434FF6FF352B40BF
:100760004FF2FF752B408D8906EA85052B43CD8915
:1007700006EA85052B4383800483CD8805870284A0
:1007800070BD0000002C01400034014070B5002411
:1007900000220023058C4FF6FF6635400584028C4D
:1007A0008388848B4FF68F752C404FF6FC752C4058
:1007B0000D882C434FF6FF552A400D894FF6FF76E2
:1007C00006EA05252A434D8806EA05252A43154DE4
:1007D000A84202D0144DA8421DD14FF2FF752A4005
:1007E0004D894FF6FF7606EA05252A434FF6FF3579
:1007F0002A408D8806EA05252A434EF6FF752B40D0
:100800004DF6FF752B408D8906EA05152B43CD89E2
:1008100006EA05152B4383808483CD88858702846F
:1008200070BD0000002C01400034014070B5002272
:1008300000230024058C4EF6FF7635400584038C9A
:100840008488828B48F6FF752A404FF6FF452A4080
:100850000D884FF6FF7606EA05252A434DF6FF750B
:100860002B400D8906EA05352B434D8806EA0535F0
:100870002B430B4DA84202D00A4DA84208D14BF69B
:10088000FF752C408D894FF6FF7606EA85152C43BF
:1008900084808283CD88A0F84050038470BD00001E
:1008A000002C014000340140002202881D4B984278
:1008B0000ED01D4B98420BD0B0F1804F08D01B4B8F
:1008C000984205D01A4B984202D01A4B984204D154
:1008D0004FF68F731A404B881A43174B984207D034
:1008E000164B984204D04FF6FF431A40CB881A4368
:1008F00002808B8883850B8803850A4B98420BD036
:10090000094B984208D00E4B984205D00D4B9842A7
:1009100002D00D4B984201D10B7A038601238382CA
:1009200070470000002C01400034014000040040EA
:1009300000080040000C004000100040001400407F
:1009400000400140004401400048014010B500242F
:1009500040F225511C4800F063F8012832D100F024
:1009600075FD0446312C08D101201849086040F279
:100970002551154800F02CF81FE0322C08D1022038
:100980001249086040F225510F4800F021F814E0A8
:10099000332C08D103200D49086040F225510A4844
:1009A00000F016F809E0342C07D10420074908604C
:1009B00040F22551044800F00BF840F2255102485E
:1009C00000F006F810BD00000038014000000020D3
:1009D00010B50022002340F66A14A14200D100BFE6
:1009E0000A1201249440A3B2DC43048010BD21B15B
:1009F000828942F40052828104E082894DF6FF73BD
:100A00001A408281704702460020B1F5007F00D174
:100A100000BF13880B400BB1012000E0002070479D
:100A200070B50246002400230025002040F66A1617
:100A3000B14200D100BFC1F3421501F01F030126EE
:100A400006FA03F3012D02D19689334006E0022D08
:100A500002D1168A334001E0968A33400C120126F7
:100A600006FA04F41688344013B10CB1012000E0FA
:100A7000002070BDF0B503460024002600250020AC
:100A800040F66A17B94200D100BF1846C1F34214BC
:100A900001F01F06012707FA06F5012C01D10C30E1
:100AA00004E0022C01D1103000E014301AB10768C4
:100AB0002F43076002E00768AF430760F0BD000006
:100AC0002DE9F04786B005460E460024A24600BF39
:100AD000A1460027B08900B100BF2F462C8A4CF6F2
:100AE000FF700440F08804432C82AC894EF6F3106A
:100AF0000440B08831890843718908430443AC81BC
:100B0000AC8A4FF6FF400440B0890443AC8201A890
:100B1000FFF784FC1F48874202D1DDF810A001E0F6
:100B2000DDF80CA0A88900F4004040B10AEBCA002F
:100B300000EB0A1031684900B0FBF1F807E00AEB5E
:100B4000CA0000EB0A1031688900B0FBF1F864209C
:100B5000B8FBF0F004012009642101FB1089A88989
:100B600000F4004040B1322000EBC900B0FBF1F0CE
:100B700000F00700044308E0322000EB0910642174
:100B8000B0FBF1F000F00F0004432C8106B0BDE88B
:100B9000F08700000038014001468888C0F3080053
:100BA0007047C1F3080282807047014606E00020CA
:100BB00000E0401C41F672729042FADB0A1EA1F17D
:100BC0000101F4D1704710B50024132000F0F0FAB1
:100BD0004FF47A70FFF7E9FF132000F0B1FB4FF4F8
:100BE000FA60FFF7E2FF0F2000F066FB4FF4FA60B7
:100BF000FFF7DBFF122000F057FA4FF4FA70FFF70F
:100C0000D4FF122000F0D4FA4FF4FA70FFF7CDFFB2
:100C1000062406E0204600F00DFBC820FFF7C5FFC4
:100C2000641C092CF6DD132000F0C2FA4FF4FA70B0
:100C3000FFF7BBFF142000F0BBFA4FF4FA70FFF788
:100C4000B4FF152000F0B4FA4FF4FA70FFF7ADFFCF
:100C50000A2000F031FB4FF47A70FFF7A6FF122054
:100C600000F0A6FA092406E0204600F0E3FAC820C6
:100C7000FFF79BFF641E052CF6DAC820FFF795FFEF
:100C8000132000F095FA122000F05AFB4FF49670F2
:100C9000FFF78BFF092000F00FFB4FF49670FFF772
:100CA00084FF0F2000F042FA4FF49670FFF77DFFAB
:100CB000152000F0F9F94FF49670FFF776FF152034
:100CC00000F076FA10BD10B50024132000F070FA81
:100CD0004FF47A70FFF769FF132000F031FB4FF4F7
:100CE000FA60FFF762FF0F2000F0E6FA4FF4FA60B7
:100CF000FFF75BFF122000F0D7F94FF4FA70FFF70F
:100D000054FF122000F054FA4FF4FA70FFF74DFF31
:100D1000062406E0204600F08DFAC820FFF745FFC4
:100D2000641C092CF6DD132000F042FA4FF4FA702F
:100D3000FFF73BFF142000F03BFA4FF4FA70FFF787
:100D400034FF152000F034FA4FF4FA70FFF72DFF4E
:100D50000A2000F0B1FA4FF47A70FFF726FF122054
:100D600000F026FA092406E0204600F063FAC820C5
:100D7000FFF71BFF641E052CF6DAC820FFF715FFEE
:100D8000132000F015FA122000F0DAFA4FF49670F2
:100D9000FFF70BFF092000F08FFA4FF49670FFF772
:100DA00004FF0F2000F0C2F94FF49670FFF7FDFE2C
:100DB000152000F079F94FF49670FFF7F6FE152034
:100DC00000F0F6F910BD10B50024132000F0F0F982
:100DD0004FF47A70FFF7E9FE132000F0B1FA4FF4F8
:100DE000FA60FFF7E2FE0F2000F066FA4FF4FA60B7
:100DF000FFF7DBFE122000F057F94FF4FA70FFF70F
:100E0000D4FE122000F0D4F94FF4FA70FFF7CDFEB3
:100E1000062406E0204600F00DFAC820FFF7C5FEC4
:100E2000641C092CF6DD132000F0C2F94FF4FA70AF
:100E3000FFF7BBFE142000F0BBF94FF4FA70FFF788
:100E4000B4FE152000F0B4F94FF4FA70FFF7ADFED0
:100E50000A2000F031FA4FF47A70FFF7A6FE122054
:100E600000F0A6F9092406E0204600F0E3F9C820C6
:100E7000FFF79BFE641E052CF6DAC820FFF795FEEF
:100E8000132000F095F9122000F05AFA4FF49670F2
:100E9000FFF78BFE092000F00FFA4FF49670FFF772
:100EA00084FE0F2000F042F94FF49670FFF77DFEAC
:100EB000152000F0F9F84FF49670FFF776FE152034
:100EC00000F076F910BD10B50024132000F070F981
:100ED0004FF47A70FFF769FE132000F031FA4FF4F7
:100EE000FA60FFF762FE0F2000F0E6F94FF4FA60B7
:100EF000FFF75BFE122000F0D7F84FF4FA70FFF70F
:100F000054FE122000F054F94FF4FA70FFF74DFE32
:100F1000062406E0204600F08DF9C820FFF745FEC4
:100F2000641C092CF6DD132000F042F94FF4FA702E
:100F3000FFF73BFE142000F03BF94FF4FA70FFF787
:100F400034FE152000F034F94FF4FA70FFF72DFE4F
:100F50000A2000F0B1F94FF47A70FFF726FE122054
:100F600000F026F9092406E0204600F063F9C820C5
:100F7000FFF71BFE641E052CF6DAC820FFF715FEEE
:100F8000132000F015F9122000F0DAF94FF49670F2
:100F9000FFF70BFE092000F08FF94FF49670FFF772
:100FA00004FE0F2000F0C2F84FF49670FFF7FDFD2D
:100FB000152000F079F84FF49670FFF7F6FD152034
:100FC00000F0F6F810BD00004FF4E13000F0FCF93D
:100FD00000F056F84DE0122000F0B2F94FF4967090
:100FE000FFF7E3FD092000F067F94FF49670FFF773
:100FF000DCFD0F2000F09AF84FF49670FFF7D5FD56
:10100000152000F051F84FF49670FFF7CEFD142034
:1010100000F0CEF8682000F029FA4FF4FA70FFF7DC
:10102000C4FD14A000F032FA14480068012806D06C
:1010300002280AD003280ED0042818D111E0FFF7A7
:10104000C2FD00200D49086012E0FFF73CFE0020C1
:101050000A4908600CE0FFF7B6FE00200749086067
:1010600006E0FFF730FF00200449086000E000BF01
:1010700000BFB0E7776F726C6400000000000020D2
:1010800008B54FF4C060FFF79FF925208DF80000E8
:1010900000208DF801008DF8020001208DF803007A
:1010A0006846FFF759F908BD10B588B0044601211C
:1010B0000820FFF7A3F98020ADF81C0003208DF86D
:1010C0001E0018208DF81F0007A91648FFF7B9F871
:1010D00001210420FFF782F9C720ADF8140041F682
:1010E0001F40ADF810000020ADF81600ADF812005A
:1010F00004A90D48FFF7D8FB6020ADF80000A0B2AE
:10110000ADF806000020ADF808000120ADF802009F
:1011100069460548FFF7E8FA01210348FFF78CFA12
:1011200008B010BD000C01400008004010B588B0A8
:10113000044601210820FFF761F94020ADF81C00AA
:1011400003208DF81E0018208DF81F0007A91648EF
:10115000FFF777F801210420FFF740F9C720ADF829
:10116000140041F61F40ADF810000020ADF8160045
:10117000ADF8120004A90D48FFF796FB6020ADF80A
:101180000000A0B2ADF806000020ADF80800012074
:10119000ADF8020069460548FFF75AFA01210348F5
:1011A000FFF74AFA08B010BD000C014000080040EB
:1011B00010B588B0044601210820FFF71FF902206E
:1011C000ADF81C0003208DF81E0018208DF81F00BC
:1011D00007A91648FFF735F801210220FFF7FEF8AE
:1011E000C720ADF8140041F61F40ADF810000020F4
:1011F000ADF81600ADF8120004A90D48FFF754FB36
:101200006020ADF80000A0B2ADF806000020ADF8F7
:1012100008000120ADF8020069460548FFF706FB0B
:1012200001210348FFF708FA08B010BD000C014087
:101230000004004010B588B0044601210820FFF7E3
:10124000DDF80120ADF81C0003208DF81E001820E9
:101250008DF81F0007A91648FEF7F3FF01210220B1
:10126000FFF7BCF8C720ADF8140041F61F40ADF8F9
:1012700010000020ADF81600ADF8120004A90D48CA
:10128000FFF712FB6020ADF80000A0B2ADF8060039
:101290000020ADF808000120ADF8020069460548BD
:1012A000FFF774FA01210348FFF7C6F908B010BD33
:1012B000000C01400004004010B588B00446012134
:1012C0000820FFF79BF84FF48070ADF81C00032056
:1012D0008DF81E0018208DF81F0007A91648FEF78C
:1012E000B0FF01210420FFF779F8C720ADF8140002
:1012F00041F61F40ADF810000020ADF81600ADF823
:10130000120004A90D48FFF7CFFA6020ADF80000E5
:10131000A0B2ADF806000020ADF808000120ADF83D
:10132000020069460548FFF731FA01210348FFF73B
:1013300083F908B010BD0000000C01400008004017
:1013400010B588B0044601210820FFF757F84FF484
:101350000070ADF81C0003208DF81E0018208DF8D9
:101360001F0007A91648FEF76CFF01210420FFF7B4
:1013700035F8C720ADF8140041F61F40ADF8100055
:101380000020ADF81600ADF8120004A90D48FFF7D3
:101390008BFA6020ADF80000A0B2ADF80600002086
:1013A000ADF808000120ADF8020069460548FFF7D6
:1013B0003DFA01210348FFF73FF908B010BD0000D6
:1013C000000C01400008004010B586B00446012121
:1013D00044F20400FFF712F84FF40070ADF8140067
:1013E00001208DF8160018208DF8170005A9154862
:1013F000FEF727FF4FF48060ADF8140004208DF84D
:10140000170005A90F48FEF71CFF01940020ADF856
:101410000800ADF80A00ADF80C00ADF810000C2083
:10142000ADF80E0001A90848FFF74AFB0121064864
:10143000FFF7DDFA012240F225510348FFF71AFBBE
:1014400006B010BD000801400038014010B500BFD3
:1014500020210548FFF7D7FA0028F9D00248FFF706
:101460009BFBC0B210BD00000038014010B504461F
:1014700021460548FFF795FB00BF80210248FFF792
:10148000C2FA0028F9D010BD0038014010B504465A
:1014900003E02078FFF7EAFF641C20780028F8D1E9
:1014A00010BD0000C4140008000000201800000057
:1014B00028010008DC140008180000206006000065
:1014C00044010008000000000000000001020304C5
:0C14D000010203040607080902040608D4
:040000050800018965
:00000001FF
